{
  "contractName": "Exchange",
  "abi": [
    {
      "inputs": [
        {
          "internalType": "address",
          "name": "_feeAccount",
          "type": "address"
        },
        {
          "internalType": "uint256",
          "name": "_feePercent",
          "type": "uint256"
        }
      ],
      "payable": false,
      "stateMutability": "nonpayable",
      "type": "constructor"
    },
    {
      "anonymous": false,
      "inputs": [
        {
          "indexed": false,
          "internalType": "uint256",
          "name": "id",
          "type": "uint256"
        },
        {
          "indexed": false,
          "internalType": "address",
          "name": "user",
          "type": "address"
        },
        {
          "indexed": false,
          "internalType": "address",
          "name": "tokenGet",
          "type": "address"
        },
        {
          "indexed": false,
          "internalType": "uint256",
          "name": "amountGet",
          "type": "uint256"
        },
        {
          "indexed": false,
          "internalType": "address",
          "name": "tokenGive",
          "type": "address"
        },
        {
          "indexed": false,
          "internalType": "uint256",
          "name": "amountGive",
          "type": "uint256"
        },
        {
          "indexed": false,
          "internalType": "uint256",
          "name": "timestamp",
          "type": "uint256"
        }
      ],
      "name": "CancelOrder",
      "type": "event"
    },
    {
      "anonymous": false,
      "inputs": [
        {
          "indexed": false,
          "internalType": "address",
          "name": "tokenAddress",
          "type": "address"
        },
        {
          "indexed": false,
          "internalType": "address",
          "name": "user",
          "type": "address"
        },
        {
          "indexed": false,
          "internalType": "uint256",
          "name": "amount",
          "type": "uint256"
        },
        {
          "indexed": false,
          "internalType": "uint256",
          "name": "balance",
          "type": "uint256"
        }
      ],
      "name": "Deposit",
      "type": "event"
    },
    {
      "anonymous": false,
      "inputs": [
        {
          "indexed": false,
          "internalType": "uint256",
          "name": "id",
          "type": "uint256"
        },
        {
          "indexed": false,
          "internalType": "address",
          "name": "user",
          "type": "address"
        },
        {
          "indexed": false,
          "internalType": "address",
          "name": "tokenGet",
          "type": "address"
        },
        {
          "indexed": false,
          "internalType": "uint256",
          "name": "amountGet",
          "type": "uint256"
        },
        {
          "indexed": false,
          "internalType": "address",
          "name": "tokenGive",
          "type": "address"
        },
        {
          "indexed": false,
          "internalType": "uint256",
          "name": "amountGive",
          "type": "uint256"
        },
        {
          "indexed": false,
          "internalType": "uint256",
          "name": "timestamp",
          "type": "uint256"
        }
      ],
      "name": "Order",
      "type": "event"
    },
    {
      "anonymous": false,
      "inputs": [
        {
          "indexed": false,
          "internalType": "uint256",
          "name": "id",
          "type": "uint256"
        },
        {
          "indexed": false,
          "internalType": "address",
          "name": "user",
          "type": "address"
        },
        {
          "indexed": false,
          "internalType": "address",
          "name": "tokenGet",
          "type": "address"
        },
        {
          "indexed": false,
          "internalType": "uint256",
          "name": "amountGet",
          "type": "uint256"
        },
        {
          "indexed": false,
          "internalType": "address",
          "name": "tokenGive",
          "type": "address"
        },
        {
          "indexed": false,
          "internalType": "uint256",
          "name": "amountGive",
          "type": "uint256"
        },
        {
          "indexed": false,
          "internalType": "address",
          "name": "userFill",
          "type": "address"
        },
        {
          "indexed": false,
          "internalType": "uint256",
          "name": "timestamp",
          "type": "uint256"
        }
      ],
      "name": "Trade",
      "type": "event"
    },
    {
      "anonymous": false,
      "inputs": [
        {
          "indexed": false,
          "internalType": "address",
          "name": "tokenAddress",
          "type": "address"
        },
        {
          "indexed": false,
          "internalType": "address",
          "name": "user",
          "type": "address"
        },
        {
          "indexed": false,
          "internalType": "uint256",
          "name": "amount",
          "type": "uint256"
        },
        {
          "indexed": false,
          "internalType": "uint256",
          "name": "balance",
          "type": "uint256"
        }
      ],
      "name": "Withdraw",
      "type": "event"
    },
    {
      "payable": false,
      "stateMutability": "nonpayable",
      "type": "fallback"
    },
    {
      "constant": true,
      "inputs": [],
      "name": "feeAccount",
      "outputs": [
        {
          "internalType": "address",
          "name": "",
          "type": "address"
        }
      ],
      "payable": false,
      "stateMutability": "view",
      "type": "function"
    },
    {
      "constant": true,
      "inputs": [],
      "name": "feePercent",
      "outputs": [
        {
          "internalType": "uint256",
          "name": "",
          "type": "uint256"
        }
      ],
      "payable": false,
      "stateMutability": "view",
      "type": "function"
    },
    {
      "constant": true,
      "inputs": [
        {
          "internalType": "uint256",
          "name": "",
          "type": "uint256"
        }
      ],
      "name": "orderCancelled",
      "outputs": [
        {
          "internalType": "bool",
          "name": "",
          "type": "bool"
        }
      ],
      "payable": false,
      "stateMutability": "view",
      "type": "function"
    },
    {
      "constant": true,
      "inputs": [],
      "name": "orderCount",
      "outputs": [
        {
          "internalType": "uint256",
          "name": "",
          "type": "uint256"
        }
      ],
      "payable": false,
      "stateMutability": "view",
      "type": "function"
    },
    {
      "constant": true,
      "inputs": [
        {
          "internalType": "uint256",
          "name": "",
          "type": "uint256"
        }
      ],
      "name": "orderFilled",
      "outputs": [
        {
          "internalType": "bool",
          "name": "",
          "type": "bool"
        }
      ],
      "payable": false,
      "stateMutability": "view",
      "type": "function"
    },
    {
      "constant": true,
      "inputs": [
        {
          "internalType": "uint256",
          "name": "",
          "type": "uint256"
        }
      ],
      "name": "orders",
      "outputs": [
        {
          "internalType": "uint256",
          "name": "id",
          "type": "uint256"
        },
        {
          "internalType": "address",
          "name": "user",
          "type": "address"
        },
        {
          "internalType": "address",
          "name": "tokenGet",
          "type": "address"
        },
        {
          "internalType": "uint256",
          "name": "amountGet",
          "type": "uint256"
        },
        {
          "internalType": "address",
          "name": "tokenGive",
          "type": "address"
        },
        {
          "internalType": "uint256",
          "name": "amountGive",
          "type": "uint256"
        },
        {
          "internalType": "uint256",
          "name": "timestamp",
          "type": "uint256"
        }
      ],
      "payable": false,
      "stateMutability": "view",
      "type": "function"
    },
    {
      "constant": true,
      "inputs": [
        {
          "internalType": "address",
          "name": "",
          "type": "address"
        },
        {
          "internalType": "address",
          "name": "",
          "type": "address"
        }
      ],
      "name": "tokenDB",
      "outputs": [
        {
          "internalType": "uint256",
          "name": "",
          "type": "uint256"
        }
      ],
      "payable": false,
      "stateMutability": "view",
      "type": "function"
    },
    {
      "constant": false,
      "inputs": [],
      "name": "depositEther",
      "outputs": [],
      "payable": true,
      "stateMutability": "payable",
      "type": "function"
    },
    {
      "constant": false,
      "inputs": [
        {
          "internalType": "uint256",
          "name": "_amount",
          "type": "uint256"
        }
      ],
      "name": "withdrawEther",
      "outputs": [],
      "payable": false,
      "stateMutability": "nonpayable",
      "type": "function"
    },
    {
      "constant": false,
      "inputs": [
        {
          "internalType": "address",
          "name": "_token",
          "type": "address"
        },
        {
          "internalType": "uint256",
          "name": "_amount",
          "type": "uint256"
        }
      ],
      "name": "depositToken",
      "outputs": [],
      "payable": false,
      "stateMutability": "nonpayable",
      "type": "function"
    },
    {
      "constant": false,
      "inputs": [
        {
          "internalType": "address",
          "name": "_token",
          "type": "address"
        },
        {
          "internalType": "uint256",
          "name": "_amount",
          "type": "uint256"
        }
      ],
      "name": "withdrawToken",
      "outputs": [],
      "payable": false,
      "stateMutability": "nonpayable",
      "type": "function"
    },
    {
      "constant": true,
      "inputs": [
        {
          "internalType": "address",
          "name": "_token",
          "type": "address"
        },
        {
          "internalType": "address",
          "name": "_user",
          "type": "address"
        }
      ],
      "name": "balanceOf",
      "outputs": [
        {
          "internalType": "uint256",
          "name": "",
          "type": "uint256"
        }
      ],
      "payable": false,
      "stateMutability": "view",
      "type": "function"
    },
    {
      "constant": false,
      "inputs": [
        {
          "internalType": "address",
          "name": "_tokenGet",
          "type": "address"
        },
        {
          "internalType": "uint256",
          "name": "_amountGet",
          "type": "uint256"
        },
        {
          "internalType": "address",
          "name": "_tokenGive",
          "type": "address"
        },
        {
          "internalType": "uint256",
          "name": "_amountGive",
          "type": "uint256"
        }
      ],
      "name": "makeOrder",
      "outputs": [],
      "payable": false,
      "stateMutability": "nonpayable",
      "type": "function"
    },
    {
      "constant": false,
      "inputs": [
        {
          "internalType": "uint256",
          "name": "_id",
          "type": "uint256"
        }
      ],
      "name": "cancelOrder",
      "outputs": [],
      "payable": false,
      "stateMutability": "nonpayable",
      "type": "function"
    },
    {
      "constant": false,
      "inputs": [
        {
          "internalType": "uint256",
          "name": "_id",
          "type": "uint256"
        }
      ],
      "name": "fillOrder",
      "outputs": [],
      "payable": false,
      "stateMutability": "nonpayable",
      "type": "function"
    }
  ],
  "bytecode": "0x608060405234801561001057600080fd5b50604051610fc3380380610fc38339818101604052604081101561003357600080fd5b508051602090910151600080546001600160a01b0319166001600160a01b03909316929092178255600155610f5590819061006e90396000f3fe6080604052600436106100e85760003560e01c80637fd6f15c1161008a5780639e281a98116100595780639e281a98146102e8578063a85c38ef14610321578063e9c1896614610393578063f7888aec146103bd576100e8565b80637fd6f15c14610249578063954a4bd81461025e57806398ea5fca146102995780639a5c90aa146102a1576100e8565b80634a93e0da116100c65780634a93e0da14610186578063514fcac7146101c457806365e17c9d146101ee57806367b830ad1461021f576100e8565b80632453ffa8146100fa578063338b5dea146101215780633bed33ce1461015c575b3480156100f457600080fd5b50600080fd5b34801561010657600080fd5b5061010f6103f8565b60408051918252519081900360200190f35b34801561012d57600080fd5b5061015a6004803603604081101561014457600080fd5b506001600160a01b0381351690602001356103fe565b005b34801561016857600080fd5b5061015a6004803603602081101561017f57600080fd5b5035610542565b34801561019257600080fd5b506101b0600480360360208110156101a957600080fd5b503561064a565b604080519115158252519081900360200190f35b3480156101d057600080fd5b5061015a600480360360208110156101e757600080fd5b503561065f565b3480156101fa57600080fd5b5061020361072d565b604080516001600160a01b039092168252519081900360200190f35b34801561022b57600080fd5b5061015a6004803603602081101561024257600080fd5b503561073c565b34801561025557600080fd5b5061010f6107f6565b34801561026a57600080fd5b5061010f6004803603604081101561028157600080fd5b506001600160a01b03813581169160200135166107fc565b61015a610819565b3480156102ad57600080fd5b5061015a600480360360808110156102c457600080fd5b506001600160a01b03813581169160208101359160408201351690606001356108ae565b3480156102f457600080fd5b5061015a6004803603604081101561030b57600080fd5b506001600160a01b038135169060200135610a84565b34801561032d57600080fd5b5061034b6004803603602081101561034457600080fd5b5035610bf2565b604080519788526001600160a01b0396871660208901529486168786015260608701939093529316608085015260a084019290925260c0830191909152519081900360e00190f35b34801561039f57600080fd5b506101b0600480360360208110156103b657600080fd5b5035610c3e565b3480156103c957600080fd5b5061010f600480360360408110156103e057600080fd5b506001600160a01b0381358116916020013516610c53565b60065481565b6001600160a01b03821661041157600080fd5b604080516323b872dd60e01b81523360048201523060248201526044810183905290516001600160a01b038416916323b872dd9160648083019260209291908290030181600087803b15801561046657600080fd5b505af115801561047a573d6000803e3d6000fd5b505050506040513d602081101561049057600080fd5b505161049b57600080fd5b6001600160a01b03821660009081526002602090815260408083203384529091529020546104cf908263ffffffff610c8016565b6001600160a01b03831660008181526002602090815260408083203380855290835292819020859055805193845290830191909152818101849052606082019290925290517fdcbc1c05240f31ff3ad067ef1ee35ce4997762752e3a095284754544f4c709d79181900360800190a15050565b336000908152600080516020610f01833981519152602052604090205481111561056b57600080fd5b336000908152600080516020610f018339815191526020526040902054610598908263ffffffff610c9916565b336000818152600080516020610f018339815191526020526040808220939093559151909183156108fc02918491818181858888f193505050501580156105e3573d6000803e3d6000fd5b50336000818152600080516020610f018339815191526020908152604080832054815193845291830193909352818301849052606082015290517ff341246adaac6f497bc2a656f546ab9e182111d630394f0c57c710a59a2cb5679181900360800190a150565b60056020526000908152604090205460ff1681565b600081815260036020526040902060018101546001600160a01b0316331461068657600080fd5b8054821461069357600080fd5b600082815260046020818152604092839020805460ff19166001179055835460028501546003860154938601546005870154865193845233948401949094526001600160a01b0391821683870152606083019490945292909216608083015260a08201524260c082015290517f8ad5af334aaf597f15dd597da702fda54fdf739d22e2c11afc21612c49cd38ec9181900360e00190a15050565b6000546001600160a01b031681565b60008111801561074e57506006548111155b61075757600080fd5b60008181526005602052604090205460ff161561077357600080fd5b60008181526004602052604090205460ff161561078f57600080fd5b6000818152600360208190526040909120805460018201546002830154938301546004840154600585015494956107da956001600160a01b0394851694918216939290911690610cae565b506000908152600560205260409020805460ff19166001179055565b60015481565b600260209081526000928352604080842090915290825290205481565b336000908152600080516020610f018339815191526020526040902054610846903463ffffffff610c8016565b336000818152600080516020610f018339815191526020908152604080832085905580519283529082019290925234818301526060810192909252517fdcbc1c05240f31ff3ad067ef1ee35ce4997762752e3a095284754544f4c709d79181900360800190a1565b6006546108c290600163ffffffff610c8016565b6006819055506040518060e001604052806006548152602001336001600160a01b03168152602001856001600160a01b03168152602001848152602001836001600160a01b03168152602001828152602001428152506003600060065481526020019081526020016000206000820151816000015560208201518160010160006101000a8154816001600160a01b0302191690836001600160a01b0316021790555060408201518160020160006101000a8154816001600160a01b0302191690836001600160a01b031602179055506060820151816003015560808201518160040160006101000a8154816001600160a01b0302191690836001600160a01b0316021790555060a0820151816005015560c082015181600601559050507f9d33853d43e3607b4cc01fdc78338ff2dca6fef7db9232dae6d3eb55fbc3b10960065433868686864260405180888152602001876001600160a01b03166001600160a01b03168152602001866001600160a01b03166001600160a01b03168152602001858152602001846001600160a01b03166001600160a01b0316815260200183815260200182815260200197505050505050505060405180910390a150505050565b6001600160a01b038216610a9757600080fd5b6001600160a01b0382166000908152600260209081526040808320338452909152902054811115610ac757600080fd5b6040805163a9059cbb60e01b81523360048201526024810183905290516001600160a01b0384169163a9059cbb9160448083019260209291908290030181600087803b158015610b1657600080fd5b505af1158015610b2a573d6000803e3d6000fd5b505050506040513d6020811015610b4057600080fd5b5051610b4b57600080fd5b6001600160a01b0382166000908152600260209081526040808320338452909152902054610b7f908263ffffffff610c9916565b6001600160a01b03831660008181526002602090815260408083203380855290835292819020859055805193845290830191909152818101849052606082019290925290517ff341246adaac6f497bc2a656f546ab9e182111d630394f0c57c710a59a2cb5679181900360800190a15050565b6003602081905260009182526040909120805460018201546002830154938301546004840154600585015460069095015493956001600160a01b03938416959084169492939091169187565b60046020526000908152604090205460ff1681565b6001600160a01b038083166000908152600260209081526040808320938516835292905220545b92915050565b600082820183811015610c9257600080fd5b9392505050565b600082821115610ca857600080fd5b50900390565b6000610cd66064610cca60015487610eb790919063ffffffff16565b9063ffffffff610ede16565b9050610d1b610ceb858363ffffffff610c8016565b6001600160a01b03871660009081526002602090815260408083203384529091529020549063ffffffff610c9916565b6001600160a01b0386811660009081526002602090815260408083203384529091528082209390935590881681522054610d559085610c80565b6001600160a01b0386811660009081526002602090815260408083208b8516845290915280822093909355805490911681522054610d939082610c80565b6001600160a01b0380871660009081526002602081815260408084208454861685528252808420959095558784168352908152838220928a168252919091522054610de4908363ffffffff610c9916565b6001600160a01b038481166000908152600260209081526040808320938b16835292905281812092909255338252902054610e1f9083610c80565b6001600160a01b03808516600081815260026020908152604080832033808552908352928190209590955584518c81528b8516918101919091529289168385015260608301889052608083019190915260a0820185905260c08201524260e082015290517f0dddf4182dc0fc1a311cb75f049c97403c6b8a99cf6b2229a36e7c526acb3f81918190036101000190a150505050505050565b600082610ec657506000610c7a565b82820282848281610ed357fe5b0414610c9257600080fd5b6000808211610eec57600080fd5b6000828481610ef757fe5b0494935050505056feac33ff75c19e70fe83507db0d683fd3465c996598dc972688b7ace676c89077ba265627a7a723158201c7b893096317e7a84d1b179fbd59c6770e7d1a68a38210a1c972cca17f6936a64736f6c63430005100032",
  "source": "pragma solidity ^0.5.0;\nimport 'openzeppelin-solidity/contracts/math/SafeMath.sol';\nimport \"./Token.sol\";\n\ncontract Exchange{\n\tusing SafeMath for uint;\n\taddress public feeAccount;\n\tuint256 public feePercent;\n\tmapping (address => mapping (address => uint256)) public tokenDB;\n\tmapping (uint256 => _Order) public orders;\n\tmapping (uint256 => bool) public orderCancelled;\n\tmapping (uint256 => bool) public orderFilled;\n\tuint256 public orderCount;\n\n\taddress constant ETHER = address(0); // ether mapping for tokens\n\n\n\t// event\n\tevent Deposit(address tokenAddress, address user, uint256 amount, uint256 balance);\n\tevent Withdraw(address tokenAddress, address user, uint256 amount, uint256 balance);\n\n\tevent Order (\n\t\tuint id,\n\t\taddress user,\n\t\taddress tokenGet,\n\t\tuint256 amountGet,\n\t\taddress tokenGive,\n\t\tuint256 amountGive,\n\t\tuint timestamp\n\t);\n\n\tevent Trade (\n\t\tuint id,\n\t\taddress user,\n\t\taddress tokenGet,\n\t\tuint256 amountGet,\n\t\taddress tokenGive,\n\t\tuint256 amountGive,\n\t\taddress userFill,\n\t\tuint timestamp\n\t);\n\n\tevent CancelOrder (\n\t\tuint256 id,\n\t\taddress user,\n\t\taddress tokenGet,\n\t\tuint256 amountGet,\n\t\taddress tokenGive,\n\t\tuint256 amountGive,\n\t\tuint timestamp\n\t);\n\n\tstruct _Order {\n\t\tuint id;\n\t\taddress user;\n\t\taddress tokenGet;\n\t\tuint256 amountGet;\n\t\taddress tokenGive;\n\t\tuint256 amountGive;\n\t\tuint timestamp;\n\t}\n\n\tconstructor (address _feeAccount, uint256 _feePercent) public {\n\t\tfeeAccount = _feeAccount;\n\t\tfeePercent = _feePercent;\n\t}\n\n\t// reverts the ether sent to this smart contract\n\tfunction () external{\n\t\trevert();\n\t}\n\tfunction depositEther() payable public{\n\t\t\n\t\ttokenDB[ETHER][msg.sender] = tokenDB[ETHER][msg.sender].add(msg.value);\n\t\temit Deposit(ETHER, msg.sender, msg.value, tokenDB[ETHER][msg.sender]);\n\t}\n\n\tfunction withdrawEther(uint256 _amount) public{\n\t\trequire(tokenDB[ETHER][msg.sender] >= _amount);\n\t\ttokenDB[ETHER][msg.sender] = tokenDB[ETHER][msg.sender].sub(_amount);\n\t\tmsg.sender.transfer(_amount);\n\t\temit Withdraw(ETHER, msg.sender, _amount, tokenDB[ETHER][msg.sender]);\n\t}\n\n\t// first approve these token then depoist\n\tfunction depositToken(address _token, uint256 _amount) public{\n\t\trequire(_token != ETHER);\n\t\trequire(Token(_token).transferFrom(msg.sender, address(this), _amount));\n\t\ttokenDB[_token][msg.sender] = tokenDB[_token][msg.sender].add(_amount);\n\t\temit Deposit(_token, msg.sender, _amount, tokenDB[_token][msg.sender]);\n\t}\n\n\tfunction withdrawToken(address _token, uint256 _amount) public{\n\t\trequire(_token != ETHER);\n\t\trequire(tokenDB[_token][msg.sender] >= _amount);\n\t\t//TODO: WHY I CNA NOT DO THIS\n\t\t//require(Token(_token).transferFrom(address(this), msg.sender, _amount));\n\t\trequire(Token(_token).transfer(msg.sender, _amount));\n\t\ttokenDB[_token][msg.sender] = tokenDB[_token][msg.sender].sub(_amount);\n\t\temit Withdraw(_token, msg.sender, _amount, tokenDB[_token][msg.sender]);\t\n\t}\n\n\tfunction balanceOf(address _token, address _user) public view returns (uint256){\n\t\treturn tokenDB[_token][_user] ;\n\t}\n\n\tfunction makeOrder(address _tokenGet, uint256 _amountGet, address _tokenGive, uint256 _amountGive) public {\n\t\torderCount = orderCount.add(1);\n\t\torders[orderCount] = _Order(orderCount, msg.sender, _tokenGet, _amountGet, _tokenGive, _amountGive, now);\n\t\temit Order(orderCount, msg.sender, _tokenGet, _amountGet, _tokenGive, _amountGive, now);\n\t}\n\n\tfunction cancelOrder(uint256 _id) public{\n\t\t// must be my order and a valid order\n\t\t_Order storage _order = orders[_id];\n\t\trequire(address(_order.user) == msg.sender);\n\t\trequire(_order.id == _id);\n\t\torderCancelled[_id] = true;\n\n\n\t\temit CancelOrder(_order.id, msg.sender, _order.tokenGet, _order.amountGet, _order.tokenGive, _order.amountGive, now);\n\n\t}\n\n\tfunction fillOrder(uint256 _id) public{\n\t\t// must be my order and a valid order\n\t\trequire(_id > 0 &&  _id <= orderCount);\n\t\trequire(!orderFilled[_id]);\n\t\trequire(!orderCancelled[_id]);\n\t\t\n\t\t\n\t\t_Order storage _order = orders[_id];\n\t\t\n\t\t_trade(_order.id, _order.user, _order.tokenGet, _order.amountGet, _order.tokenGive, _order.amountGive);\n\t\t\n\t\torderFilled[_id] = true; \n\t}\n\n\tfunction _trade(uint256 _orderId, address _user, address _tokenGet, uint256 _amountGet, address _tokenGive, uint256 _amountGive) internal {\n\t\t\n\t\tuint256 _feeAmount = _amountGet.mul(feePercent).div(100);\n\n\t\ttokenDB[_tokenGet][msg.sender] = tokenDB[_tokenGet][msg.sender].sub(_amountGet.add(_feeAmount));\n\t\ttokenDB[_tokenGet][_user] = tokenDB[_tokenGet][_user].add(_amountGet);\n\n\t\ttokenDB[_tokenGet][feeAccount] = tokenDB[_tokenGet][feeAccount].add(_feeAmount);\n\n\t\ttokenDB[_tokenGive][_user] = tokenDB[_tokenGive][_user].sub(_amountGive);\n\t\ttokenDB[_tokenGive][msg.sender] = tokenDB[_tokenGive][msg.sender].add(_amountGive);\n\n\t\temit Trade(_orderId, _user, _tokenGet, _amountGet, _tokenGive, _amountGive, msg.sender, now);\n\t}\n}",
  "sourcePath": "/Users/apple/My Data/Code/DWHelper/bootcamp/Code/Capstone-1/blockchain-developer-bootcamp/src/contracts/Exchange.sol",
  "compiler": {
    "name": "solc",
    "version": "0.5.16+commit.9c3226ce.Emscripten.clang"
  },
  "schemaVersion": "3.4.7",
  "updatedAt": "2022-06-15T04:04:47.205Z",
  "networkType": "ethereum",
  "devdoc": {
    "methods": {}
  },
  "userdoc": {
    "methods": {}
  }
}